S01A000053414D4431305F4C4344313630325F5254432E7372656341
S1130000F8040020FD000000F9000000F9000000E1
S113001000000000000000000000000000000000DC
S1130020000000000000000000000000F9000000D3
S11300300000000000000000F9000000F9000000CA
S1130040F9000000F9000000F9000000310D000083
S1130050F9000000F9000000F900000000000000B1
S1130060F9000000F9000000F9000000F9000000A8
S1130070F9000000F9000000F9000000F900000098
S1130080F9000000F9000000F900000010B5064C6A
S11300902378002B07D1054B002B02D0044800E045
S11300A000BF0123237010BD640000200000000085
S11300B08C1E0000084B10B5002B03D007490848DC
S11300C000E000BF07480368002B00D110BD064BB9
S11300D0002BFBD09847F9E70000000068000020DF
S11300E08C1E00008C1E00000000000010B5014BA7
S11300F0984710BD21020000FEE7000010B5264A13
S1130100264B9A4211D01A00254B9A420DD2254A09
S113011003339B1A9B0801339B0000221F481E498E
S11301208C58845004329A42FAD11F4A1F4B9A4287
S11301300AD2D3431D495B1803218B4304339B1814
S1130140002102C29342FCD1194AFF21194B8B436F
S11301509360FD3990235B00174AD150174B9A7B6B
S11301602E318A4320210A439A739A7B0C218A43B5
S113017008210A439A739A7B03218A4302210A4382
S11301809A730F4A536880210B4353600D4B984771
S11301900D4B9847FEE7C0468C1E0000000000206F
S11301A0640000200400002064000020F40000200B
S11301B000ED00E000000000007000410048004134
S11301C000400041251400006512000010B50248EB
S11301D0024B984710BDC04610E000E0B109000092
S11301E0044A936920210B439361034A034B5A80C9
S11301F07047C0460004004004430000000C004067
S113020010B5034B984703490348044B984710BD66
S1130210E101000000140040980000208106000065
S113022070B52E4B9847C022D20580239B005361A2
S113023093602B4B2B499962C0210906996249248A
S1130240185D012188431855802040025061906058
S11302508020C0059862244C9C6250255C5D8C43D0
S11302605C558024A4025461946098621F4C9C6283
S113027001355C5D8C435C558024E40354619460D7
S113028098621B4C9C6205355C5D8C435C558024F4
S11302902404546194609862164C9C6201355C5D40
S11302A08C435C5580246404546194609862124CBD
S11302B09C6201355C5D8C435C558024240554614B
S11302C0946098620D4A9A625B201A5C8A431A54BD
S11302D00B4B98470B4B984770BDC046F90A00007A
S11302E00044004100020040010000C0020000C0C0
S11302F0400000C0800000C0000100C0000800C031
S1130300CD01000001020000EFF31083036072B618
S1130310BFF35F8F7047BFF35F8F036883F3108869
S11303207047000083070BD10C2915D889000C4BAA
S11303305B589F460B4870470B48FCE70B48FAE7AD
S11303400C290BD889000A4B5B589F460548F2E7F5
S11303500848F0E70548EEE70020ECE70020EAE76C
S1130360BC1C000080DE2800803B2600008D270096
S1130370F01C000000EA240070B505000C000168C0
S113038000290CD0E268CB689A4218D908000368A7
S1130390002B0FD0DE6896420AD21800F7E721003E
S11303A00C4B9847E168280010380B4B984704E041
S11303B08B4204D02100094B9847002070BD2100D6
S11303C02800044B9847E16828001038024B9847EE
S11303D0F3E7C046310A0000E90C00005D0A0000A2
S11303E070B50C00D068CD680B7C052B06D89B003B
S11303F01449CB589F46A84200D33C35E56070BDF4
S1130400A842FBD3E1231B019C466544F6E7A842BE
S1130410F4D30D4B9C466544F0E7A842EED3517AE1
S113042050890A4B98472D18E8E7A842E6D3538928
S11304309B0703D0064B9C466544DFE7054B9C466F
S11304406544DBE7241D0000805101002503000002
S11304508033E1010085E201F0B5DE4657464E46A1
S11304604546E0B583B0CB881A00019343694E79C1
S113047008798046887883464878814609788A4690
S1130480D11AC9B2002912D09BB200220024032041
S113049007E0194DAC466444013201339BB28A42F1
S11304A006D21842F5D1154DAC466444F4E70C006D
S11304B0012E08D90125124FE9B20198B847241832
S11304C00135B542F8D3E12000015B4658434B4661
S11304D01B014A469B1A9B00C01850444246013AED
S11304E0084B5343C018001903B03CBC90469946CE
S11304F0A246AB46F0BDC0468033E1010085E2016F
S11305002503000080510100F8B5CE46474680B56A
S11305100C00904646690321224A234803E09C428A
S113052007D3E41A0136B7B213003942F7D00300F7
S1130530F5E701251D4B994629003000C847844240
S113054003D3241A0135EDB2F6E7194B01219C427D
S113055007D9174B174A944664440131C9B29C42E7
S1130560F8D8154B00229C4207D9134B13488446F4
S113057064440132D2B29C42F8D800233B2C04D903
S11305803C3C0133DBB23B2CFAD84046C780457172
S1130590017182704370047000200CBC904699462F
S11305A0F8BDC0460085E2018033E1012503000067
S11305B07F51010080AEFEFF0F0E0000F0F1FFFF3F
S11305C0F0B587B00400037E9A0704D002221343D7
S11305D0037607B0F0BD214B98470390266930009D
S11305E0431E9841C0B2CE2252001D491D4B98476C
S11305F0002E27D03500F368039A934222D81A4F6D
S113060007E02369002B24D01D00DA6803998A428D
S11306101AD8260010363000B84720006B69984776
S11306206B7C022BEDD16A46290020000F4B9847C2
S11306302A1DE96820000E4B9847290030000D4B15
S11306409847DEE7331E04D0D96820000A4B984748
S1130650BFE700212000094B9847BAE7C10C00000E
S1130660541D0000050A0000650A0000E1030000B3
S11306700905000079030000E90C0000890B000063
S113068070B504000D00431E9841C0B2E022520030
S113069009490A4B98472368AB4208D0002B08D17C
S11306A025602000064B9847064B636170BD00200F
S11306B0FCE712204042F9E7541D0000050A00003F
S11306C0E90B0000B207000010B50400431E984176
S11306D0C0B2E622FF320449044B98472000044B81
S11306E09847002010BDC046541D0000050A0000B4
S11306F0590C000030B583B004000D00431E98412E
S1130700C0B2832292000E490E4B984720000E4B34
S1130710984701006A4620000C4B98472B786A469C
S113072013706B785370AB78937069462000084B54
S1130730984701002000074B9847002003B030BDC4
S1130740541D0000050A0000C10C0000090500004A
S113075059040000910C000030B583B004000D0072
S1130760431E9841C0B2892292000E490E4B98470D
S113077020000E4B984701006A4620000C4B984716
S11307802B786A4613716B7853716B88D3806946F2
S11307902000084B984701002000074B9847002091
S11307A003B030BD541D0000050A0000C10C000058
S11307B00905000059040000910C000070B5040004
S11307C00D00431E9841C0B2064A0749074B98479B
S11307D02000074B984701002A002000054B98474A
S11307E0002070BD3B020000541D0000050A0000FB
S11307F0C10C000009050000F0B587B004000D002D
S11308001700431E9841C0B2932292005849594E92
S1130810B0472800431E9841C0B2574A5449B047D4
S11308206F612000554B9847060001AA0100200083
S1130830534B984703962B7C052B12D89B00514AA7
S1130840D3589F466B465B896B816B465B7A6B72B0
S11308506B461B7A2B726B469B79AB716B465B794B
S11308606B712E1D31002000474B9847E8606A46A3
S113087029002000454B98473200E9682000404B8E
S11308809847237E0122134323762369002B62D0E9
S113089026001036290030003D4B9847002845D0EB
S11308A0002F37D0290030003A4B984729003000F8
S11308B0394B9847237E01221900914321769B07E7
S11308C03BD4237E012293432376002007B0F0BD5E
S11308D06B465B896B816B465B7A6B726B461B7AEA
S11308E02B726B469B79AB71BBE76B465B896B8163
S11308F06B465B7A6B726B461B7A2B72B1E76B4665
S11309005B896B816B465B7A6B72AAE76B465B898A
S11309106B81A6E7290030001E4B98472369002B02
S1130920C8D1002120001D4B9847C3E7002FC1D038
S113093029003000184B9847BCE76846184B984785
S1130940237E0222934323762000164B9847684661
S1130950154B9847B5E7002FB3D0144920000F4B2F
S113096098472000103029000B4B9847A9E7C04650
S1130970541D0000050A00004D020000C10C0000D7
S1130980090500003C1D000059040000E1030000BB
S11309900D0A0000730A000079030000890B0000AF
S11309A009030000210D000017030000C105000029
S11309B010B5024B1860024B984710BD8000002010
S11309C0AD0D000010B5044B1C68044B98470100A2
S11309D02000034B984710BD80000020D90A000076
S11309E0C10D000010B5044B1C68044B984701006E
S11309F02000034B984710BD80000020F10A00003E
S1130A00C10D0000002800D100BE70470368002B10
S1130A100AD08B420AD01B68002B03D09942FAD12A
S1130A20012000E0002070470020FCE70120FAE7E5
S1130A3070B504000D00064B984701235840C0B21E
S1130A4039220449044B984723682B60256070BD04
S1130A500D0A0000701D0000050A000003680B6009
S1130A60016070470368002B01D01A680260180007
S1130A707047002919D0026891420BD0002A16D081
S1130A80136899420AD0002B0DD01A68914206D0FF
S1130A901300F8E713680360012003E013000A68F9
S1130AA01A60012070470020FCE70020FAE70020CC
S1130AB0F8E700000300064A1268002A04D0044A3A
S1130AC01068C318136070470249014A1160F6E7C1
S1130AD084000020F804002010B50300642058436B
S1130AE001386421014B9847013010BD0D130000FB
S1130AF0FA239B005843704710B5064B5A685A6056
S1130B00054B9847054B9847054B98473F20054BA5
S1130B10984710BD00400041690B0000550D0000CE
S1130B209D0D0000290B0000C3070AD50B4B802242
S1130B3052009A60832252025A601A005378DB09E9
S1130B40FCD1030708D5054B054A9A60054A5A604B
S1130B501A005378DB09FCD17047C046000C0040F2
S1130B600320000003030100064B1A7AD2B21A7262
S1130B705A7AD2B25A729A7AD2B29A72DA7AD2B2D1
S1130B80DA7270470004004070B504000D000028BC
S1130B9015D00068431E9841C0B230220F49104B53
S1130BA09847002D0DD065600E4B0822C0214900E6
S1130BB05A501A602368073ADA71002070BD002089
S1130BC0EBE7236801229A7108218023054AD1505A
S1130BD0BFF34F8FBFF36F8FEFE7C046901D000048
S1130BE0050A000000E100E010B5041E29D00068E9
S1130BF0431E9841C0B275221449154B9847154BB2
S1130C001C602268937ADB09FCD113889B071AD4F1
S1130C10138801210B431380937ADB09FCD12268EA
S1130C20937ADB09FCD1A0231B011380937ADB099F
S1130C30FCD1226853888021C9010B4353800020D2
S1130C4010BD0020D7E711204042F9E7901D0000B5
S1130C50050A00008800002010B5041E11D00068A9
S1130C60431E9841C0B2A6220749084B9847226800
S1130C70138802210B431380937ADB09FCD10020F3
S1130C8010BD0020EFE7C046901D0000050A0000DB
S1130C9070B504000D0000280CD00068431E984174
S1130CA0C0B2C2220449054B984723681A691D61E2
S1130CB0002070BD0020F4E7901D0000050A00002C
S1130CC010B5041E0AD00068431E9841C0B2D22257
S1130CD00349044B98472368186910BD0020F6E7C0
S1130CE0901D0000050A000070B504000D000028E6
S1130CF00FD00068431E9841C0B2E0220649074B5A
S1130D009847226893699561937ADB09FCD10020A6
S1130D1070BD0020F1E7C046901D0000050A0000E8
S1130D20082180235B00014AD150704700E100E0B4
S1130D3010B5074B1C6823681B7ADB0700D410BD71
S1130D40200063689847236801221A72F7E7C046B7
S1130D50880000200E4B1A6A196A0E480240890F57
S1130D6089070D4801430A431A629A6902210A431A
S1130D709A611A7F1D310A401A7719000822CB683C
S1130D801A42FCD0024A136A80210B431362704753
S1130D90000800400000FF0F02030000024A9369AC
S1130DA002218B439361704700080040024B034AC1
S1130DB05A6005221A60704710E000E0FFFFFF0050
S1130DC070B50B0E5E1EF6B2002B13D034000E4A23
S1130DD00E4D802040025560956013680342FCD09C
S1130DE0013CE4B2FF2CF6D13306F61A084B9C46BC
S1130DF061447118044B59609960190080225202B1
S1130E000B681342FCD070BD10E000E0FFFFFF0050
S1130E10010000FF43091F2210401E3A82400029AE
S1130E2006D1DB01C021C9058C4663445A61704771
S1130E30DB01C021C9058C4663449A61F7E70000D1
S1130E4070B5060080780021074DA8470520074C9F
S1130E50A047B0780121A8470220A047B07800211C
S1130E60A8476420A04770BD150E0000C509000006
S1130E70F0B5C64600B50500884600240127084E93
S1130E804146214139402B19D878B0470134042C0C
S1130E90F6D12800034B984704BC9046F0BDC046E9
S1130EA0150E0000410E0000F0B5C64600B5050061
S1130EB00E0000781100124CA04768780021A0476A
S1130EC0AB7BDB0609D4310928000E4CA047310066
S1130ED02800A04704BC9046F0BD00240123984696
S1130EE0074F31002141434619402B19D878B847A0
S1130EF00134082CF5D12800034B9847EAE7C04693
S1130F00150E0000710E0000410E000010B5002205
S1130F10014B984710BDC046A90E000010B5012230
S1130F20014B984710BDC046A90E0000F8B5060055
S1130F300F000800084B9847C0B200280BD03C00B3
S1130F400138C5B201357D19044F21783000B84706
S1130F500134AC42F9D1F8BDB11400001D0F0000FA
S1130F6010B5C17B04230B43C3730C231943014BFA
S1130F70984710BD0D0F000010B50221024B984791
S1130F800A20024B984710BD0D0F0000E509000030
S1130F9010B504000121044B98470A20034B9847DD
S1130FA02000034B984710BD0D0F0000E509000019
S1130FB0790F000070B50400017342732F4B0020B9
S1130FC018704030587099704031D970012A03D993
S1130FD0A37B08221343A3733220294EB047207801
S1130FE00021284DA847A0780021A8476078002157
S1130FF0A8473220B047A17BCB0629D52025294319
S1131000C9B22000204EB04705201D4B9847A17B54
S11310102943C9B22000B04796201C4B9847A17BB6
S11310202943C9B22000B047A17B202319432000E3
S1131030154DA8470723E3732000154B984720005C
S1131040144B98470223237406212000A84770BD3F
S113105003212000104DA8470520094EB047032165
S11310602000A8470520B04703212000A847C82036
S1131070064B984702212000A847D5E78C000020A2
S1131080E5090000150E00000D0F0000C509000061
S1131090610F0000910F0000710E0000F0B5DE46F4
S11310A057464E464546E0B583B092469B460CAB48
S11310B01B7899460DAB1B7898460EAB1B789C4663
S11310C00FAB1A7810AB1B78019311AC277812ACD4
S11310D0267813AC257814AC2478534603705B4609
S11310E043704B468370C1724346C37063460371B9
S11310F042716B461B798371C771067245728472A3
S1131100002904D0102904D11023837301E00023A3
S1131110837301221021044B984703B03CBC9046D2
S11311209946A246AB46F0BDB50F000010B5131C9E
S1131130032A00D90323DBB2427B9A4201D8013A45
S1131140D3B2054AD35CCB18802149421943C9B2B2
S1131150024B984710BDC0468C0000200D0F0000C4
S113116010B50248024B984710BDC04698000020B5
S1131170C906000070B50B490B4B4B800B234B7019
S113118009330B70094C133BA370183363700023AD
S11311902370074D2800074B984721002800064B71
S11311A0984770BDE0000020E4070000BC00002068
S11311B09800002059070000F506000010B5024908
S11311C00248034B984710BDB4000020980000204B
S11311D0BD07000070B58AB0194C0023089307932B
S11311E00693059310330493013303930A33029354
S11311F0043B01930E3B00930D3318220021200081
S1131200104DA8470222102120000F4B98472000C0
S11312100E4B984764200E4B984701220021200072
S11312200C4EB0470C4920000C4DA8470022002169
S11312302000B0470A492000A8470AB070BDC04644
S1131240C00000209D100000B50F0000910F0000A9
S1131250E50900002D110000A81D00002D0F00005D
S1131260B01D0000F0B5D64600B582B0184B9847C3
S1131270184B9847184B9847184B9847184B9A4661
S1131280184FD0477B78BA78174E397800911749B0
S11312903000174CA0477B793A79F98800911549B9
S11312A01548A047154C002206212000144DA847DC
S11312B031002000134EB047012206212000A84728
S11312C00D492000B047FA2080000F4B9847D8E71B
S11312D0ED0000006111000075110000D51100003F
S11312E0BD110000B4000020D4000020B81D00008F
S11312F06D140000C81D0000E4000020C0000020A0
S11313002D1100002D0F0000E50900000022430804
S11313108B4274D303098B425FD3030A8B4244D3B9
S1131320030B8B4228D3030C8B420DD3FF220902FB
S113133012BA030C8B4202D31212090265D0030BBA
S11313408B4219D300E0090AC30B8B4201D3CB03B0
S1131350C01A5241830B8B4201D38B03C01A5241F2
S1131360430B8B4201D34B03C01A5241030B8B42F4
S113137001D30B03C01A5241C30A8B4201D3CB02DF
S1131380C01A5241830A8B4201D38B02C01A5241C4
S1131390430A8B4201D34B02C01A5241030A8B42C7
S11313A001D30B02C01A5241CDD2C3098B4201D3DF
S11313B0CB01C01A524183098B4201D38B01C01A5D
S11313C0524143098B4201D34B01C01A52410309D4
S11313D08B4201D30B01C01A5241C3088B4201D383
S11313E0CB00C01A524183088B4201D38B00C01A30
S11313F0524143088B4201D34B00C01A5241411A57
S113140000D20146524110467047FFE701B5002063
S113141000F006F802BDC0460029F7D076E7704711
S11314207047C04670B500260C4D0D4C641BA410CB
S1131430A64209D1002600F019FD0A4D0A4C641B8E
S1131440A410A64205D170BDB300EB5898470136ED
S1131450EEE7B300EB5898470136F2E7781E000038
S1131460781E0000781E00007C1E00000EB410B52B
S11314709DB002A9029008610B48822488604861EB
S1131480012040421FABC881084804CBA400006877
S113149001938C8100F0D4F80023029A13701DB0DC
S11314A010BC08BC03B01847FFFFFF7F00000020FA
S11314B00023C25C0133002AFBD1581E7047000090
S11314C0032370B5CD1C9D43083506000C2D1ED298
S11314D00C25A9421DD8300000F076FB254A14687B
S11314E02100002919D1244C2368002B03D130009A
S11314F000F032FB20602900300000F02DFB431C7B
S11315002CD10C233000336000F05FFB03E0002D8E
S1131510DFDA0C233360002070BD0B685B1B1AD428
S11315200B2B03D90B60CC18256003E08C420ED141
S113153063681360300000F048FB200007220B3082
S1131540231D9043C31AE7D05A42E250E4E74B68A4
S113155063600C00EEE70C004968C2E70323C41C77
S11315609C43A042E0D0211A300000F0F5FA431C5D
S1131570DAD1C6E79000002094000020F0B58E6810
S113158085B007000C00039201939E4239D8902342
S11315908A89DB001A4234D00325096923685B1A5F
S11315A00293636902985D43EB0F5D19019B6D1013
S11315B001331B18AB4200D91D00530532D5290055
S11315C03800FFF77DFF061E09D10C233B60402342
S11315D00120A28940421343A38105B0F0BD029AC1
S11315E0216900F0D6FAA389144A1A4080231343D0
S11315F0A381029B2661F61826606561019EED1A9F
S1131600A560019BB34200D21E00320003992068FA
S113161000F0C8FAA36800209B1BA36023689E19EE
S11316202660DAE72A00380000F01AFB061EE0D133
S11316302169380000F0CAFAC7E7C0467FFBFFFF04
S1131640F0B59FB0029005938B890F0016001B061E
S113165011D50B69002B0ED14021FFF731FF386003
S11316603861002805D10C23029A013813601FB099
S1131670F0BD40237B61002306AD6B6120336B76A4
S11316801033AB7634002378002B47D1A31B04938B
S11316900DD0A31B320039000298FFF76FFF431CE3
S11316A000D1B5E06A69049B944663446B61237876
S11316B0002B00D1ACE00122002352426A6002A94F
S11316C05432521801342B60EB60AB601370AB657D
S11316D0584E05222178300000F050FA621C002890
S11316E020D12968CB0604D5532302AE20309B19A0
S11316F018700B0704D553232B2002AE9B191870C6
S113170023782A2B16D000200A21099B2278303A0C
S1131710092A55D9002815D0099313E0252BB5D0F3
S11317200134B0E70123801B8340296814000B4374
S11317302B60CDE7059B181D1B680590002B39DB3A
S11317400993140023782E2B0BD16378621C2A2B67
S11317503ED1059B02341A1D1B680592002B34DB15
S11317600793354E21780322300000F007FA002851
S113177006D04023801B83402A68013413432B6026
S1131780217806222D48661C297600F0F7F90028F6
S113179046D02B4B002B2FD12968059B0722C90566
S11317A028D59B189343083305936B69039A9B18B8
S11317B06B6167E75B42EB6002230B432B60C0E77E
S11317C04B4301349B180120A0E701235B42C7E788
S11317D0002314000A201A006B602178303909298B
S11317E003D9002BBDD00792BBE742430134521802
S11317F00123F2E70733D5E705AB00933A00114B19
S11318002900029800E000BF0390039B0133CCD170
S1131810BB890B985B0600D429E70120404226E7E8
S113182005AB00933A00074B2900029800F07AF8C0
S1131830EAE7C046381E00003E1E0000421E0000BB
S1131840000000007D150000F7B5150001938A68BB
S11318500B6900900C00934200DA130022002B6005
S113186043321278002A01D001332B6023689B068F
S113187002D52B6802332B60062723681F4027D02C
S1131880230043331B785A1E93412268920630D4B6
S11318902200019943320098089EB047431C25D08A
S11318A0062320682A68E16803400025042B03D13D
S11318B08D1AEB43DB171D40A3682269934201DDB7
S11318C09B1AED180027BD4220D1002010E00137FB
S11318D0E3682A689B1A9F42D2DA22000123193254
S11318E001990098089EB047431CF0D10120404262
S11318F0FEBD3020E1184331087021005A1C4531E7
S11319000978A218433202331170C1E7220001237F
S11319101A3201990098089EB047431CE6D001375B
S1131920D1E70000F0B58BB006920A00433207936A
S1131930059004920A7E0C00109B6E2A00D18FE061
S113194017D8632A2CD008D8002A00D199E0582A45
S113195054D026004236327029E0642A01D0692A24
S1131960F7D121681A68080623D5111D1960156876
S113197025E0732A00D188E008D86F2A29D0702A7C
S1131980E7D1202209680A43226003E0752A20D0A7
S1131990782ADED122007821453211706C4A30E079
S11319A00E001A684236111D196013683370012342
S11319B079E04906D9D5111D19600023D55E002DA3
S11319C003DA2D23049A6D421370624B0A270393A2
S11319D02FE020681968050603D5081D18600D68F6
S11319E005E04006F9D50D68081D1860ADB2594BE5
S11319F0082703936F2A18D00A2716E045310A7086
S1131A00544A03921A682168101D18601568080664
S1131A1022D5CB0702D52023194321601027002D9E
S1131A2003D1202322689A432260230000224333F7
S1131A301A706368A360002B5CDB04222168914365
S1131A402160002D58D1049E002B64D02600039BF6
S1131A5042361B7833705EE04806DAD5ADB2D8E77B
S1131A6009681A68080605D5111D196013686269AA
S1131A701A6006E04906F7D5111D19601368A28A99
S1131A801A800023049E236154E01A68111D196012
S1131A90166800216268300000F070F8002801D058
S1131AA0801B6060636823610023049A137041E023
S1131AB02369320006990598079DA847431C43D023
S1131AC0236800259B070FD4099BE06898423DDA00
S1131AD018003BE022000123193206990598079E5D
S1131AE0B047431C30D00135E368099A9B1A9D42E4
S1131AF0F0DBE9E7002DA9D0049E28003900FFF7A8
S1131B008BFC039B013E5B5C280033703900FFF7BC
S1131B10FDFB051EF1D1082F09D12368DB0706D58B
S1131B2063682269934202DC3023013E3370049BD4
S1131B309B1B2361079B09AA00932100069B059820
S1131B40FFF782FE431CB3D1012040420BB0F0BD2D
S1131B505A1E0000491E0000002370B5064C050003
S1131B6008002360FEF7A6FF431C03D12368002B63
S1131B7000D02B6070BDC046F0000020C9B28218AE
S1131B80904201D10020704703788B42FBD0013092
S1131B90F6E7002310B59A4200D110BDCC5CC454C2
S1131BA00133F8E710B5884202D98B18984208D35C
S1131BB000239A4207D0CC5CC4540133F9E78B5C10
S1131BC08354013AFBD210BD7047704770B50500CD
S1131BD0002910D00C1F2368002B00DAE418280019
S1131BE0FFF7F2FF1D4A1368002B05D163601460F0
S1131BF02800FFF7EAFF70BDA34209D921686018E5
S1131C008342F3D118685B6841182160EEE7130042
S1131C105A68002A01D0A242F9D919685818A0427A
S1131C200BD120680918581819608242E0D1106855
S1131C305268411819605A60DAE7A04202D90C23AD
S1131C402B60D5E721686018824203D1106852687E
S1131C504118216062605C60CAE7C04690000020C1
S1131C60F8B507000D001600002905D11100FFF793
S1131C7027FC04002000F8BD002A03D1FFF7A6FFCB
S1131C803400F7E700F012F82C008642F2D9310054
S1131C903800FFF715FC041EECD029003200FFF7D2
S1131CA078FF29003800FFF791FFE3E70B1F1B685B
S1131CB0181F002B01DA0B58C01870475803000096
S1131CC03403000038030000340300003C03000028
S1131CD0340300003C03000034030000340300001C
S1131CE03C030000340300003C0300003403000004
S1131CF05C0300004C030000500300004C03000090
S1131D00540300004C030000540300004C03000083
S1131D104C030000540300004C0300005403000073
S1131D204C030000FC030000F60300000004000064
S1131D300E0400001A0400002A04000062080000D7
S1131D4044080000D0080000EA080000FE08000073
S1131D500C0900002E2E2F68616C2F7372632F689C
S1131D60616C5F63616C656E6461722E6300000078
S1131D702E2E2F68616C2F7574696C732F737263C8
S1131D802F7574696C735F6C6973742E6300000043
S1131D902E2E2F68706C2F7274632F68706C5F72B4
S1131DA074632E6300000000446174653A0000000F
S1131DB054696D653A000000253032643A253032AA
S1131DC0643A253032640000253032642F253032E5
S1131DD0642F25303464000000000000000000007F
S1131DE000000000000000000000000000000000EF
S1131DF000000000000000000000000000000000DF
S1131E0000000000000000000000000000000000CE
S1131E1000000000000000000000000000000000BE
S1131E2000000000000000000000000000000000AE
S1131E300000000000000000232D302B2000686CFF
S1131E404C006566674546470030313233343536D9
S1131E503738394142434445460030313233343512
S1131E60363738396162636465660000F8B5C04688
S1131E70F8BC08BC9E467047B5000000F8B5C046E3
S10F1E80F8BC08BC9E4670478D000000B2
S1131E8C0400002000000000F81D0000181E0000D3
S1131E9CD81D00000000000000000000000000003D
S1131EAC0000000000000000000000000000000022
S1131EBC0000000000000000000000000000000012
S1131ECC0000000000000000000000000000000002
S1131EDC00000000000000000000000000000000F2
S1071EEC00000000EE
S9030000FC
